{
  "contractName": "ConwaysLife",
  "abi": [
    {
      "inputs": [
        {
          "internalType": "uint256",
          "name": "_x",
          "type": "uint256"
        },
        {
          "internalType": "uint256",
          "name": "_y",
          "type": "uint256"
        }
      ],
      "name": "initState",
      "outputs": [],
      "stateMutability": "nonpayable",
      "type": "function"
    },
    {
      "inputs": [],
      "name": "step",
      "outputs": [],
      "stateMutability": "nonpayable",
      "type": "function"
    },
    {
      "inputs": [],
      "name": "getState",
      "outputs": [
        {
          "internalType": "uint256[]",
          "name": "",
          "type": "uint256[]"
        },
        {
          "internalType": "uint256[]",
          "name": "",
          "type": "uint256[]"
        },
        {
          "internalType": "bool[]",
          "name": "",
          "type": "bool[]"
        }
      ],
      "stateMutability": "view",
      "type": "function",
      "constant": true
    }
  ],
  "bytecode": "0x608060405234801561000f575f80fd5b50610d208061001d5f395ff3fe608060405234801561000f575f80fd5b506004361061003f575f3560e01c80631865c57d14610043578063ba26e81c14610063578063e25fe1751461007f575b5f80fd5b61004b610089565b60405161005a93929190610a09565b60405180910390f35b61007d60048036038101906100789190610a81565b6101b1565b005b610087610411565b005b60608060605f60016002828054806020026020016040519081016040528092919081815260200182805480156100dc57602002820191905f5260205f20905b8154815260200190600101908083116100c8575b505050505092508180548060200260200160405190810160405280929190818152602001828054801561012c57602002820191905f5260205f20905b815481526020019060010190808311610118575b505050505091508080548060200260200160405190810160405280929190818152602001828054801561019f57602002820191905f5260205f20905f905b82829054906101000a900460ff161515815260200190600101906020825f0104928301926001038202915080841161016a5790505b50505050509050925092509250909192565b80826101bd9190610aec565b67ffffffffffffffff8111156101d6576101d5610b2d565b5b6040519080825280602002602001820160405280156102045781602001602082028036833780820191505090505b505f9080519060200190610219929190610780565b5080826102269190610aec565b67ffffffffffffffff81111561023f5761023e610b2d565b5b60405190808252806020026020018201604052801561026d5781602001602082028036833780820191505090505b5060019080519060200190610283929190610780565b5080826102909190610aec565b67ffffffffffffffff8111156102a9576102a8610b2d565b5b6040519080825280602002602001820160405280156102d75781602001602082028036833780820191505090505b50600290805190602001906102ed9291906107cb565b5080826102fa9190610aec565b67ffffffffffffffff81111561031357610312610b2d565b5b6040519080825280602002602001820160405280156103415781602001602082028036833780820191505090505b50600390805190602001906103579291906107cb565b505f5b5f8054905081101561040c5782816103729190610b87565b5f828154811061038557610384610bb7565b5b905f5260205f200181905550828161039d9190610be4565b600182815481106103b1576103b0610bb7565b5b905f5260205f2001819055505f600282815481106103d2576103d1610bb7565b5b905f5260205f2090602091828204019190066101000a81548160ff021916908315150217905550808061040490610c14565b91505061035a565b505050565b5f5b6002805490508110156104a0576002818154811061043457610433610bb7565b5b905f5260205f2090602091828204019190069054906101000a900460ff166003828154811061046657610465610bb7565b5b905f5260205f2090602091828204019190066101000a81548160ff021916908315150217905550808061049890610c14565b915050610413565b505f5b60028054905081101561068a575f8082815481106104c4576104c3610bb7565b5b905f5260205f20015490505f600183815481106104e4576104e3610bb7565b5b905f5260205f20015490505f805b6002805490508110156105ad575f80828154811061051357610512610bb7565b5b905f5260205f20015490505f6001838154811061053357610532610bb7565b5b905f5260205f200154905061054a8282888861071d565b801561058457506002838154811061056557610564610bb7565b5b905f5260205f2090602091828204019190069054906101000a900460ff165b1561059857838061059490610c14565b9450505b505080806105a590610c14565b9150506104f2565b50600284815481106105c2576105c1610bb7565b5b905f5260205f2090602091828204019190069054906101000a900460ff16156106345760028114806105f45750600381145b6003858154811061060857610607610bb7565b5b905f5260205f2090602091828204019190066101000a81548160ff021916908315150217905550610674565b600381146003858154811061064c5761064b610bb7565b5b905f5260205f2090602091828204019190066101000a81548160ff0219169083151502179055505b505050808061068290610c14565b9150506104a3565b505f5b60028054905081101561071a57600381815481106106ae576106ad610bb7565b5b905f5260205f2090602091828204019190069054906101000a900460ff16600282815481106106e0576106df610bb7565b5b905f5260205f2090602091828204019190066101000a81548160ff021916908315150217905550808061071290610c14565b91505061068d565b50565b5f6001610734848761072f9190610c64565b610760565b1315801561075657506001610753838661074e9190610c64565b610760565b13155b9050949350505050565b5f808213610777578161077290610ca4565b610779565b815b9050919050565b828054828255905f5260205f209081019282156107ba579160200282015b828111156107b957825182559160200191906001019061079e565b5b5090506107c7919061086c565b5090565b828054828255905f5260205f2090601f0160209004810192821561085b579160200282015f5b8382111561082d57835183826101000a81548160ff02191690831515021790555092602001926001016020815f010492830192600103026107f1565b80156108595782816101000a81549060ff02191690556001016020815f0104928301926001030261082d565b505b509050610868919061086c565b5090565b5b80821115610883575f815f90555060010161086d565b5090565b5f81519050919050565b5f82825260208201905092915050565b5f819050602082019050919050565b5f819050919050565b6108c2816108b0565b82525050565b5f6108d383836108b9565b60208301905092915050565b5f602082019050919050565b5f6108f582610887565b6108ff8185610891565b935061090a836108a1565b805f5b8381101561093a57815161092188826108c8565b975061092c836108df565b92505060018101905061090d565b5085935050505092915050565b5f81519050919050565b5f82825260208201905092915050565b5f819050602082019050919050565b5f8115159050919050565b61098481610970565b82525050565b5f610995838361097b565b60208301905092915050565b5f602082019050919050565b5f6109b782610947565b6109c18185610951565b93506109cc83610961565b805f5b838110156109fc5781516109e3888261098a565b97506109ee836109a1565b9250506001810190506109cf565b5085935050505092915050565b5f6060820190508181035f830152610a2181866108eb565b90508181036020830152610a3581856108eb565b90508181036040830152610a4981846109ad565b9050949350505050565b5f80fd5b610a60816108b0565b8114610a6a575f80fd5b50565b5f81359050610a7b81610a57565b92915050565b5f8060408385031215610a9757610a96610a53565b5b5f610aa485828601610a6d565b9250506020610ab585828601610a6d565b9150509250929050565b7f4e487b71000000000000000000000000000000000000000000000000000000005f52601160045260245ffd5b5f610af6826108b0565b9150610b01836108b0565b9250828202610b0f816108b0565b91508282048414831517610b2657610b25610abf565b5b5092915050565b7f4e487b71000000000000000000000000000000000000000000000000000000005f52604160045260245ffd5b7f4e487b71000000000000000000000000000000000000000000000000000000005f52601260045260245ffd5b5f610b91826108b0565b9150610b9c836108b0565b925082610bac57610bab610b5a565b5b828206905092915050565b7f4e487b71000000000000000000000000000000000000000000000000000000005f52603260045260245ffd5b5f610bee826108b0565b9150610bf9836108b0565b925082610c0957610c08610b5a565b5b828204905092915050565b5f610c1e826108b0565b91507fffffffffffffffffffffffffffffffffffffffffffffffffffffffffffffffff8203610c5057610c4f610abf565b5b600182019050919050565b5f819050919050565b5f610c6e82610c5b565b9150610c7983610c5b565b925082820390508181125f8412168282135f851215161715610c9e57610c9d610abf565b5b92915050565b5f610cae82610c5b565b91507f80000000000000000000000000000000000000000000000000000000000000008203610ce057610cdf610abf565b5b815f03905091905056fea2646970667358221220191fefd5b71804126ccb399cea3cfbd220d985da1c6f16111e681c40660c730f64736f6c63430008150033",
  "immutableReferences": {},
  "source": "// SPDX-License-Identifier: MIT\npragma solidity >=0.4.22 <0.9.0;\n\ncontract ConwaysLife {\n    \n    // World state\n    uint[] private x;\n    uint[] private y;\n    bool[] private alive;\n    // N+1 world state\n    bool[] private nextAlive;\n\n    function initState(uint _x, uint _y) public {\n        x = new uint[](_x * _y);\n        y = new uint[](_x * _y);\n        alive = new bool[](_x * _y);\n        nextAlive = new bool[](_x * _y);\n        for (uint i = 0; i < x.length; i++) {\n            x[i] = i % _x;\n            y[i] = i / _x;\n            alive[i] = false;\n        }\n    }\n\n    function step() public {\n        // Reset and copy state to next state\n        for (uint i = 0; i < alive.length; i++) {\n            nextAlive[i] = alive[i];\n        }\n\n        // Iterate through all the cells\n        for (uint i = 0; i < alive.length; i++) {\n            uint tempX = x[i];\n            uint tempY = y[i];\n            // Count how many alive neighbors\n            uint aliveNeighbors = 0;\n            for (uint j = 0; j < alive.length; j++) {\n                uint tempX2 = x[j];\n                uint tempY2 = y[j];\n\n                if (isNeighbor(tempX2, tempY2, tempX, tempY) && alive[j]) {\n                    aliveNeighbors++;\n                }\n            }\n            // Conway's Game of Life rules:\n            // ---------------------------------------------------------------------------\n            // 1. A live cell dies if it has fewer than two live neighbors.\n            // 2. A live cell with two or three live neighbors lives on to the next generation.\n            // 3. A live cell with more than three live neighbors dies.\n            // 4. A dead cell will be brought back to live if it has exactly three live neighbors.\n\n            // kill/spawn a cell from rules\n            if (alive[i]) {\n                nextAlive[i] = (aliveNeighbors == 2) || (aliveNeighbors == 3);\n            } else {\n                nextAlive[i] = (aliveNeighbors == 3);\n            }\n        }\n        // Update state\n        for (uint i = 0; i < alive.length; i++) {\n            alive[i] = nextAlive[i];\n        }\n    }\n\n    function getState() public view returns (uint[] memory, uint[] memory, bool[] memory) {\n        return (x, y, alive);\n    }\n\n    function isNeighbor(uint x1, uint y1, uint x2, uint y2) internal pure returns (bool) {\n        return (abs(int256(x1) - int256(x2)) <= 1) && (abs(int256(y1) - int256(y2)) <= 1);\n    }\n\n    function abs(int256 a) internal pure returns (int256) {\n        // Copied from: https://ethereum.stackexchange.com/a/84391\n        // I'm surprised this doesn't exist natively\n        return a > 0 ? a : -a;\n    }\n}",
  "sourcePath": "/Users/admin/Desktop/web3/contracts/ConwaysLife.sol",
  "compiler": {
    "name": "solc",
    "version": "0.8.21+commit.d9974bed.Emscripten.clang"
  },
  "schemaVersion": "3.4.16",
  "updatedAt": "2024-09-02T23:29:15.981Z",
  "networkType": "ethereum",
  "devdoc": {
    "kind": "dev",
    "methods": {},
    "version": 1
  },
  "userdoc": {
    "kind": "user",
    "methods": {},
    "version": 1
  }
}